{
  "abi": [
    {
      "inputs": [
        {
          "internalType": "address",
          "name": "_implemenetaion",
          "type": "address"
        },
        {
          "internalType": "address",
          "name": "_registry",
          "type": "address"
        },
        {
          "internalType": "address",
          "name": "_oracle",
          "type": "address"
        }
      ],
      "stateMutability": "nonpayable",
      "type": "constructor"
    },
    {
      "anonymous": false,
      "inputs": [
        {
          "indexed": true,
          "internalType": "address",
          "name": "owner",
          "type": "address"
        },
        {
          "indexed": true,
          "internalType": "address",
          "name": "approved",
          "type": "address"
        },
        {
          "indexed": true,
          "internalType": "uint256",
          "name": "tokenId",
          "type": "uint256"
        }
      ],
      "name": "Approval",
      "type": "event"
    },
    {
      "anonymous": false,
      "inputs": [
        {
          "indexed": true,
          "internalType": "address",
          "name": "owner",
          "type": "address"
        },
        {
          "indexed": true,
          "internalType": "address",
          "name": "operator",
          "type": "address"
        },
        {
          "indexed": false,
          "internalType": "bool",
          "name": "approved",
          "type": "bool"
        }
      ],
      "name": "ApprovalForAll",
      "type": "event"
    },
    {
      "anonymous": false,
      "inputs": [
        {
          "indexed": true,
          "internalType": "address",
          "name": "from",
          "type": "address"
        },
        {
          "indexed": true,
          "internalType": "address",
          "name": "to",
          "type": "address"
        },
        {
          "indexed": true,
          "internalType": "uint256",
          "name": "tokenId",
          "type": "uint256"
        }
      ],
      "name": "Transfer",
      "type": "event"
    },
    {
      "inputs": [
        {
          "internalType": "uint256",
          "name": "tokenId",
          "type": "uint256"
        }
      ],
      "name": "addETH",
      "outputs": [],
      "stateMutability": "payable",
      "type": "function"
    },
    {
      "inputs": [
        {
          "internalType": "address",
          "name": "to",
          "type": "address"
        },
        {
          "internalType": "uint256",
          "name": "tokenId",
          "type": "uint256"
        }
      ],
      "name": "approve",
      "outputs": [],
      "stateMutability": "nonpayable",
      "type": "function"
    },
    {
      "inputs": [
        {
          "internalType": "address",
          "name": "owner",
          "type": "address"
        }
      ],
      "name": "balanceOf",
      "outputs": [
        {
          "internalType": "uint256",
          "name": "",
          "type": "uint256"
        }
      ],
      "stateMutability": "view",
      "type": "function"
    },
    {
      "inputs": [
        {
          "internalType": "uint256",
          "name": "tokenId",
          "type": "uint256"
        }
      ],
      "name": "burn",
      "outputs": [],
      "stateMutability": "nonpayable",
      "type": "function"
    },
    {
      "inputs": [],
      "name": "chainId",
      "outputs": [
        {
          "internalType": "uint256",
          "name": "",
          "type": "uint256"
        }
      ],
      "stateMutability": "view",
      "type": "function"
    },
    {
      "inputs": [
        {
          "internalType": "uint256",
          "name": "tokenId",
          "type": "uint256"
        }
      ],
      "name": "createAccount",
      "outputs": [
        {
          "internalType": "address",
          "name": "",
          "type": "address"
        }
      ],
      "stateMutability": "nonpayable",
      "type": "function"
    },
    {
      "inputs": [
        {
          "internalType": "uint256",
          "name": "tokenId",
          "type": "uint256"
        }
      ],
      "name": "getAccount",
      "outputs": [
        {
          "internalType": "address",
          "name": "",
          "type": "address"
        }
      ],
      "stateMutability": "view",
      "type": "function"
    },
    {
      "inputs": [
        {
          "internalType": "uint256",
          "name": "tokenId",
          "type": "uint256"
        }
      ],
      "name": "getApproved",
      "outputs": [
        {
          "internalType": "address",
          "name": "",
          "type": "address"
        }
      ],
      "stateMutability": "view",
      "type": "function"
    },
    {
      "inputs": [],
      "name": "implementation",
      "outputs": [
        {
          "internalType": "address",
          "name": "",
          "type": "address"
        }
      ],
      "stateMutability": "view",
      "type": "function"
    },
    {
      "inputs": [
        {
          "internalType": "address",
          "name": "owner",
          "type": "address"
        },
        {
          "internalType": "address",
          "name": "operator",
          "type": "address"
        }
      ],
      "name": "isApprovedForAll",
      "outputs": [
        {
          "internalType": "bool",
          "name": "",
          "type": "bool"
        }
      ],
      "stateMutability": "view",
      "type": "function"
    },
    {
      "inputs": [],
      "name": "mint",
      "outputs": [],
      "stateMutability": "payable",
      "type": "function"
    },
    {
      "inputs": [],
      "name": "name",
      "outputs": [
        {
          "internalType": "string",
          "name": "",
          "type": "string"
        }
      ],
      "stateMutability": "view",
      "type": "function"
    },
    {
      "inputs": [],
      "name": "oracle",
      "outputs": [
        {
          "internalType": "address",
          "name": "",
          "type": "address"
        }
      ],
      "stateMutability": "view",
      "type": "function"
    },
    {
      "inputs": [
        {
          "internalType": "uint256",
          "name": "tokenId",
          "type": "uint256"
        }
      ],
      "name": "ownerOf",
      "outputs": [
        {
          "internalType": "address",
          "name": "",
          "type": "address"
        }
      ],
      "stateMutability": "view",
      "type": "function"
    },
    {
      "inputs": [],
      "name": "registry",
      "outputs": [
        {
          "internalType": "contract IERC6551Registry",
          "name": "",
          "type": "address"
        }
      ],
      "stateMutability": "view",
      "type": "function"
    },
    {
      "inputs": [
        {
          "internalType": "address",
          "name": "from",
          "type": "address"
        },
        {
          "internalType": "address",
          "name": "to",
          "type": "address"
        },
        {
          "internalType": "uint256",
          "name": "tokenId",
          "type": "uint256"
        }
      ],
      "name": "safeTransferFrom",
      "outputs": [],
      "stateMutability": "nonpayable",
      "type": "function"
    },
    {
      "inputs": [
        {
          "internalType": "address",
          "name": "from",
          "type": "address"
        },
        {
          "internalType": "address",
          "name": "to",
          "type": "address"
        },
        {
          "internalType": "uint256",
          "name": "tokenId",
          "type": "uint256"
        },
        {
          "internalType": "bytes",
          "name": "data",
          "type": "bytes"
        }
      ],
      "name": "safeTransferFrom",
      "outputs": [],
      "stateMutability": "nonpayable",
      "type": "function"
    },
    {
      "inputs": [
        {
          "internalType": "address",
          "name": "operator",
          "type": "address"
        },
        {
          "internalType": "bool",
          "name": "approved",
          "type": "bool"
        }
      ],
      "name": "setApprovalForAll",
      "outputs": [],
      "stateMutability": "nonpayable",
      "type": "function"
    },
    {
      "inputs": [
        {
          "internalType": "bytes4",
          "name": "interfaceId",
          "type": "bytes4"
        }
      ],
      "name": "supportsInterface",
      "outputs": [
        {
          "internalType": "bool",
          "name": "",
          "type": "bool"
        }
      ],
      "stateMutability": "view",
      "type": "function"
    },
    {
      "inputs": [],
      "name": "symbol",
      "outputs": [
        {
          "internalType": "string",
          "name": "",
          "type": "string"
        }
      ],
      "stateMutability": "view",
      "type": "function"
    },
    {
      "inputs": [],
      "name": "tokenContract",
      "outputs": [
        {
          "internalType": "address",
          "name": "",
          "type": "address"
        }
      ],
      "stateMutability": "view",
      "type": "function"
    },
    {
      "inputs": [
        {
          "internalType": "uint256",
          "name": "tokenId",
          "type": "uint256"
        }
      ],
      "name": "tokenURI",
      "outputs": [
        {
          "internalType": "string",
          "name": "",
          "type": "string"
        }
      ],
      "stateMutability": "view",
      "type": "function"
    },
    {
      "inputs": [],
      "name": "totalTokens",
      "outputs": [
        {
          "internalType": "uint256",
          "name": "",
          "type": "uint256"
        }
      ],
      "stateMutability": "view",
      "type": "function"
    },
    {
      "inputs": [
        {
          "internalType": "address",
          "name": "from",
          "type": "address"
        },
        {
          "internalType": "address",
          "name": "to",
          "type": "address"
        },
        {
          "internalType": "uint256",
          "name": "tokenId",
          "type": "uint256"
        }
      ],
      "name": "transferFrom",
      "outputs": [],
      "stateMutability": "nonpayable",
      "type": "function"
    },
    {
      "inputs": [
        {
          "internalType": "uint256",
          "name": "tokenId",
          "type": "uint256"
        },
        {
          "internalType": "address",
          "name": "receiver",
          "type": "address"
        }
      ],
      "name": "transferToken",
      "outputs": [],
      "stateMutability": "payable",
      "type": "function"
    }
  ],
  "bytecode": {
    "object": "0x6101206040524660e052306101005260006007553480156200002057600080fd5b5060405162001d8738038062001d878339810160408190526200004391620000e8565b6040518060400160405280600e81526020016d11da5d189bdd5b9d1a595cd3919560921b81525060405180604001604052806008815260200167426f756e7469657360c01b81525081600090816200009c9190620001d7565b506001620000ab8282620001d7565b5050506001600160a01b03928316608052821660a0521660c052620002a3565b80516001600160a01b0381168114620000e357600080fd5b919050565b600080600060608486031215620000fe57600080fd5b6200010984620000cb565b92506200011960208501620000cb565b91506200012960408501620000cb565b90509250925092565b634e487b7160e01b600052604160045260246000fd5b600181811c908216806200015d57607f821691505b6020821081036200017e57634e487b7160e01b600052602260045260246000fd5b50919050565b601f821115620001d257600081815260208120601f850160051c81016020861015620001ad5750805b601f850160051c820191505b81811015620001ce57828155600101620001b9565b5050505b505050565b81516001600160401b03811115620001f357620001f362000132565b6200020b8162000204845462000148565b8462000184565b602080601f8311600181146200024357600084156200022a5750858301515b600019600386901b1c1916600185901b178555620001ce565b600085815260208120601f198616915b82811015620002745788860151825594840194600190910190840162000253565b5085821015620002935787850151600019600388901b60f8161c191681555b5050505050600190811b01905550565b60805160a05160c05160e05161010051611a596200032e6000396000818161029601528181610b470152610c640152600081816103f201528181610b210152610c3e01526000818161035f01528181610b8f0152610c9e0152600081816103930152818161075c0152610fb80152600081816102dd01528181610af90152610c160152611a596000f3fe6080604052600436106101665760003560e01c806370a08231116100d1578063a22cb4651161008a578063c87b56dd11610064578063c87b56dd14610467578063cab1391514610487578063ce88b145146104a7578063e985e9c5146104c757600080fd5b8063a22cb46514610414578063b88d4fde14610434578063bad425901461045457600080fd5b806370a082311461031f5780637b1039991461034d5780637dc0d1d0146103815780637e1c0c09146103b557806395d89b41146103cb5780639a8a0592146103e057600080fd5b806342842e0e1161012357806342842e0e1461024457806342966c681461026457806355a373d614610284578063575817b2146102b85780635c60da1b146102cb5780636352211e146102ff57600080fd5b806301ffc9a71461016b57806306fdde03146101a0578063081812fc146101c2578063095ea7b3146101fa5780631249c58b1461021c57806323b872dd14610224575b600080fd5b34801561017757600080fd5b5061018b610186366004611528565b610510565b60405190151581526020015b60405180910390f35b3480156101ac57600080fd5b506101b5610562565b6040516101979190611595565b3480156101ce57600080fd5b506101e26101dd3660046115a8565b6105f4565b6040516001600160a01b039091168152602001610197565b34801561020657600080fd5b5061021a6102153660046115d6565b61061b565b005b61021a610735565b34801561023057600080fd5b5061021a61023f366004611602565b610784565b34801561025057600080fd5b5061021a61025f366004611602565b6107b6565b34801561027057600080fd5b5061021a61027f3660046115a8565b6107d1565b34801561029057600080fd5b506101e27f000000000000000000000000000000000000000000000000000000000000000081565b61021a6102c63660046115a8565b610834565b3480156102d757600080fd5b506101e27f000000000000000000000000000000000000000000000000000000000000000081565b34801561030b57600080fd5b506101e261031a3660046115a8565b6108d9565b34801561032b57600080fd5b5061033f61033a366004611643565b610939565b604051908152602001610197565b34801561035957600080fd5b506101e27f000000000000000000000000000000000000000000000000000000000000000081565b34801561038d57600080fd5b506101e27f000000000000000000000000000000000000000000000000000000000000000081565b3480156103c157600080fd5b5061033f60065481565b3480156103d757600080fd5b506101b56109bf565b3480156103ec57600080fd5b5061033f7f000000000000000000000000000000000000000000000000000000000000000081565b34801561042057600080fd5b5061021a61042f366004611660565b6109ce565b34801561044057600080fd5b5061021a61044f3660046116b4565b6109dd565b61021a610462366004611794565b610a16565b34801561047357600080fd5b506101b56104823660046115a8565b610a6b565b34801561049357600080fd5b506101e26104a23660046115a8565b610adf565b3480156104b357600080fd5b506101e26104c23660046115a8565b610bfc565b3480156104d357600080fd5b5061018b6104e23660046117b9565b6001600160a01b03918216600090815260056020908152604080832093909416825291909152205460ff1690565b60006001600160e01b031982166380ac58cd60e01b148061054157506001600160e01b03198216635b5e139f60e01b145b8061055c57506301ffc9a760e01b6001600160e01b03198316145b92915050565b606060008054610571906117e7565b80601f016020809104026020016040519081016040528092919081815260200182805461059d906117e7565b80156105ea5780601f106105bf576101008083540402835291602001916105ea565b820191906000526020600020905b8154815290600101906020018083116105cd57829003601f168201915b5050505050905090565b60006105ff82610ce5565b506000908152600460205260409020546001600160a01b031690565b6000610626826108d9565b9050806001600160a01b0316836001600160a01b0316036106985760405162461bcd60e51b815260206004820152602160248201527f4552433732313a20617070726f76616c20746f2063757272656e74206f776e656044820152603960f91b60648201526084015b60405180910390fd5b336001600160a01b03821614806106b457506106b481336104e2565b6107265760405162461bcd60e51b815260206004820152603d60248201527f4552433732313a20617070726f76652063616c6c6572206973206e6f7420746f60448201527f6b656e206f776e6572206f7220617070726f76656420666f7220616c6c000000606482015260840161068f565b6107308383610d44565b505050565b600060066000815461074690611821565b918290555090506107573382610db2565b6107817f00000000000000000000000000000000000000000000000000000000000000008261061b565b50565b61078f335b82610dcc565b6107ab5760405162461bcd60e51b815260040161068f90611848565b610730838383610e4b565b610730838383604051806020016040528060008152506109dd565b6107da33610789565b6107f65760405162461bcd60e51b815260040161068f90611895565b6000610801826108d9565b905061080c826108d9565b9050600061081983610adf565b90506108268282856107b6565b610730826000856001610fb3565b600061083f82610bfc565b90506000816001600160a01b03163460405160006040518083038185875af1925050503d806000811461088e576040519150601f19603f3d011682016040523d82523d6000602084013e610893565b606091505b50509050806107305760405162461bcd60e51b815260206004820152601260248201527108cc2d2d8cac840e8de40e6cadcc8408aa8960731b604482015260640161068f565b6000818152600260205260408120546001600160a01b03168061055c5760405162461bcd60e51b8152602060048201526018602482015277115490cdcc8c4e881a5b9d985b1a59081d1bdad95b88125160421b604482015260640161068f565b60006001600160a01b0382166109a35760405162461bcd60e51b815260206004820152602960248201527f4552433732313a2061646472657373207a65726f206973206e6f7420612076616044820152683634b21037bbb732b960b91b606482015260840161068f565b506001600160a01b031660009081526003602052604090205490565b606060018054610571906117e7565b6109d9338383610fdd565b5050565b6109e8335b83610dcc565b610a045760405162461bcd60e51b815260040161068f90611848565b610a10848484846110ab565b50505050565b610a1f336109e2565b610a3b5760405162461bcd60e51b815260040161068f90611895565b6000610a46836108d9565b9050610a51836108d9565b9050610a5e8183856107b6565b6107308183856001610fb3565b6060610a7682610ce5565b6000610a8d60408051602081019091526000815290565b90506000815111610aad5760405180602001604052806000815250610ad8565b80610ab7846110de565b604051602001610ac89291906118e6565b6040516020818303038152906040525b9392505050565b60075460405163da7323b360e01b81526001600160a01b037f0000000000000000000000000000000000000000000000000000000000000000811660048301527f000000000000000000000000000000000000000000000000000000000000000060248301527f00000000000000000000000000000000000000000000000000000000000000008116604483015260648201849052608482019290925260c060a4820152600060c48201819052917f0000000000000000000000000000000000000000000000000000000000000000169063da7323b39060e4016020604051808303816000875af1158015610bd8573d6000803e3d6000fd5b505050506040513d601f19601f8201168201806040525081019061055c9190611915565b600754604051632f4de29b60e11b81526001600160a01b037f0000000000000000000000000000000000000000000000000000000000000000811660048301527f000000000000000000000000000000000000000000000000000000000000000060248301527f0000000000000000000000000000000000000000000000000000000000000000811660448301526064820184905260848201929092526000917f00000000000000000000000000000000000000000000000000000000000000001690635e9bc5369060a401602060405180830381865afa158015610bd8573d6000803e3d6000fd5b6000818152600260205260409020546001600160a01b03166107815760405162461bcd60e51b8152602060048201526018602482015277115490cdcc8c4e881a5b9d985b1a59081d1bdad95b88125160421b604482015260640161068f565b600081815260046020526040902080546001600160a01b0319166001600160a01b0384169081179091558190610d79826108d9565b6001600160a01b03167f8c5be1e5ebec7d5bd14f71427d1e84f3dd0314c0f7b2291e5b200ac8c7c3b92560405160405180910390a45050565b6109d9828260405180602001604052806000815250611171565b600080610dd8836108d9565b9050806001600160a01b0316846001600160a01b03161480610e1f57506001600160a01b0380821660009081526005602090815260408083209388168352929052205460ff165b80610e435750836001600160a01b0316610e38846105f4565b6001600160a01b0316145b949350505050565b826001600160a01b0316610e5e826108d9565b6001600160a01b031614610e845760405162461bcd60e51b815260040161068f90611932565b6001600160a01b038216610ee65760405162461bcd60e51b8152602060048201526024808201527f4552433732313a207472616e7366657220746f20746865207a65726f206164646044820152637265737360e01b606482015260840161068f565b826001600160a01b0316610ef9826108d9565b6001600160a01b031614610f1f5760405162461bcd60e51b815260040161068f90611932565b600081815260046020908152604080832080546001600160a01b03199081169091556001600160a01b0387811680865260038552838620805460001901905590871680865283862080546001019055868652600290945282852080549092168417909155905184937fddf252ad1be2c89b69c2b068fc378daa952ba7f163c4a11628f55a4df523b3ef91a461073083838360015b610a107f000000000000000000000000000000000000000000000000000000000000000083610d44565b816001600160a01b0316836001600160a01b03160361103e5760405162461bcd60e51b815260206004820152601960248201527f4552433732313a20617070726f766520746f2063616c6c657200000000000000604482015260640161068f565b6001600160a01b03838116600081815260056020908152604080832094871680845294825291829020805460ff191686151590811790915591519182527f17307eab39ab6107e8899845ad3d59bd9653f200f220920489ca2b5937696c31910160405180910390a3505050565b6110b6848484610e4b565b6110c2848484846111a4565b610a105760405162461bcd60e51b815260040161068f90611977565b606060006110eb836112a5565b600101905060008167ffffffffffffffff81111561110b5761110b61169e565b6040519080825280601f01601f191660200182016040528015611135576020820181803683370190505b5090508181016020015b600019016f181899199a1a9b1b9c1cb0b131b232b360811b600a86061a8153600a850494508461113f57509392505050565b61117b838361137d565b61118860008484846111a4565b6107305760405162461bcd60e51b815260040161068f90611977565b60006001600160a01b0384163b1561129a57604051630a85bd0160e11b81526001600160a01b0385169063150b7a02906111e89033908990889088906004016119c9565b6020604051808303816000875af1925050508015611223575060408051601f3d908101601f1916820190925261122091810190611a06565b60015b611280573d808015611251576040519150601f19603f3d011682016040523d82523d6000602084013e611256565b606091505b5080516000036112785760405162461bcd60e51b815260040161068f90611977565b805181602001fd5b6001600160e01b031916630a85bd0160e11b149050610e43565b506001949350505050565b60008072184f03e93ff9f4daa797ed6e38ed64bf6a1f0160401b83106112e45772184f03e93ff9f4daa797ed6e38ed64bf6a1f0160401b830492506040015b6d04ee2d6d415b85acef81000000008310611310576d04ee2d6d415b85acef8100000000830492506020015b662386f26fc10000831061132e57662386f26fc10000830492506010015b6305f5e1008310611346576305f5e100830492506008015b612710831061135a57612710830492506004015b6064831061136c576064830492506002015b600a831061055c5760010192915050565b6001600160a01b0382166113d35760405162461bcd60e51b815260206004820181905260248201527f4552433732313a206d696e7420746f20746865207a65726f2061646472657373604482015260640161068f565b6000818152600260205260409020546001600160a01b0316156114385760405162461bcd60e51b815260206004820152601c60248201527f4552433732313a20746f6b656e20616c7265616479206d696e74656400000000604482015260640161068f565b6000818152600260205260409020546001600160a01b03161561149d5760405162461bcd60e51b815260206004820152601c60248201527f4552433732313a20746f6b656e20616c7265616479206d696e74656400000000604482015260640161068f565b6001600160a01b038216600081815260036020908152604080832080546001019055848352600290915280822080546001600160a01b0319168417905551839291907fddf252ad1be2c89b69c2b068fc378daa952ba7f163c4a11628f55a4df523b3ef908290a46109d9600083836001610fb3565b6001600160e01b03198116811461078157600080fd5b60006020828403121561153a57600080fd5b8135610ad881611512565b60005b83811015611560578181015183820152602001611548565b50506000910152565b60008151808452611581816020860160208601611545565b601f01601f19169290920160200192915050565b602081526000610ad86020830184611569565b6000602082840312156115ba57600080fd5b5035919050565b6001600160a01b038116811461078157600080fd5b600080604083850312156115e957600080fd5b82356115f4816115c1565b946020939093013593505050565b60008060006060848603121561161757600080fd5b8335611622816115c1565b92506020840135611632816115c1565b929592945050506040919091013590565b60006020828403121561165557600080fd5b8135610ad8816115c1565b6000806040838503121561167357600080fd5b823561167e816115c1565b91506020830135801515811461169357600080fd5b809150509250929050565b634e487b7160e01b600052604160045260246000fd5b600080600080608085870312156116ca57600080fd5b84356116d5816115c1565b935060208501356116e5816115c1565b925060408501359150606085013567ffffffffffffffff8082111561170957600080fd5b818701915087601f83011261171d57600080fd5b81358181111561172f5761172f61169e565b604051601f8201601f19908116603f011681019083821181831017156117575761175761169e565b816040528281528a602084870101111561177057600080fd5b82602086016020830137600060208483010152809550505050505092959194509250565b600080604083850312156117a757600080fd5b823591506020830135611693816115c1565b600080604083850312156117cc57600080fd5b82356117d7816115c1565b91506020830135611693816115c1565b600181811c908216806117fb57607f821691505b60208210810361181b57634e487b7160e01b600052602260045260246000fd5b50919050565b60006001820161184157634e487b7160e01b600052601160045260246000fd5b5060010190565b6020808252602d908201527f4552433732313a2063616c6c6572206973206e6f7420746f6b656e206f776e6560408201526c1c881bdc88185c1c1c9bdd9959609a1b606082015260800190565b60208082526031908201527f4552433732313a207472616e736665722063616c6c6572206973206e6f74206f6040820152701ddb995c881b9bdc88185c1c1c9bdd9959607a1b606082015260800190565b600083516118f8818460208801611545565b83519083019061190c818360208801611545565b01949350505050565b60006020828403121561192757600080fd5b8151610ad8816115c1565b60208082526025908201527f4552433732313a207472616e736665722066726f6d20696e636f72726563742060408201526437bbb732b960d91b606082015260800190565b60208082526032908201527f4552433732313a207472616e7366657220746f206e6f6e20455243373231526560408201527131b2b4bb32b91034b6b83632b6b2b73a32b960711b606082015260800190565b6001600160a01b03858116825284166020820152604081018390526080606082018190526000906119fc90830184611569565b9695505050505050565b600060208284031215611a1857600080fd5b8151610ad88161151256fea2646970667358221220077f0bba4356d3b6985ff2dc07141c9097f3e1e0876f677705dcd6f6c835386464736f6c63430008150033",
    "linkReferences": {}
  },
  "methodIdentifiers": {
    "addETH(uint256)": "575817b2",
    "approve(address,uint256)": "095ea7b3",
    "balanceOf(address)": "70a08231",
    "burn(uint256)": "42966c68",
    "chainId()": "9a8a0592",
    "createAccount(uint256)": "cab13915",
    "getAccount(uint256)": "ce88b145",
    "getApproved(uint256)": "081812fc",
    "implementation()": "5c60da1b",
    "isApprovedForAll(address,address)": "e985e9c5",
    "mint()": "1249c58b",
    "name()": "06fdde03",
    "oracle()": "7dc0d1d0",
    "ownerOf(uint256)": "6352211e",
    "registry()": "7b103999",
    "safeTransferFrom(address,address,uint256)": "42842e0e",
    "safeTransferFrom(address,address,uint256,bytes)": "b88d4fde",
    "setApprovalForAll(address,bool)": "a22cb465",
    "supportsInterface(bytes4)": "01ffc9a7",
    "symbol()": "95d89b41",
    "tokenContract()": "55a373d6",
    "tokenURI(uint256)": "c87b56dd",
    "totalTokens()": "7e1c0c09",
    "transferFrom(address,address,uint256)": "23b872dd",
    "transferToken(uint256,address)": "bad42590"
  },
  "id": 22
}