{
  "abi": [
    {
      "inputs": [
        {
          "internalType": "address",
          "name": "_implemenetaion",
          "type": "address"
        },
        {
          "internalType": "address",
          "name": "_registry",
          "type": "address"
        },
        {
          "internalType": "address",
          "name": "_oracle",
          "type": "address"
        }
      ],
      "stateMutability": "nonpayable",
      "type": "constructor"
    },
    {
      "anonymous": false,
      "inputs": [
        {
          "indexed": true,
          "internalType": "address",
          "name": "owner",
          "type": "address"
        },
        {
          "indexed": true,
          "internalType": "address",
          "name": "approved",
          "type": "address"
        },
        {
          "indexed": true,
          "internalType": "uint256",
          "name": "tokenId",
          "type": "uint256"
        }
      ],
      "name": "Approval",
      "type": "event"
    },
    {
      "anonymous": false,
      "inputs": [
        {
          "indexed": true,
          "internalType": "address",
          "name": "owner",
          "type": "address"
        },
        {
          "indexed": true,
          "internalType": "address",
          "name": "operator",
          "type": "address"
        },
        {
          "indexed": false,
          "internalType": "bool",
          "name": "approved",
          "type": "bool"
        }
      ],
      "name": "ApprovalForAll",
      "type": "event"
    },
    {
      "anonymous": false,
      "inputs": [
        {
          "indexed": true,
          "internalType": "address",
          "name": "from",
          "type": "address"
        },
        {
          "indexed": true,
          "internalType": "address",
          "name": "to",
          "type": "address"
        },
        {
          "indexed": true,
          "internalType": "uint256",
          "name": "tokenId",
          "type": "uint256"
        }
      ],
      "name": "Transfer",
      "type": "event"
    },
    {
      "inputs": [
        {
          "internalType": "uint256",
          "name": "tokenId",
          "type": "uint256"
        }
      ],
      "name": "addETH",
      "outputs": [],
      "stateMutability": "payable",
      "type": "function"
    },
    {
      "inputs": [
        {
          "internalType": "address",
          "name": "to",
          "type": "address"
        },
        {
          "internalType": "uint256",
          "name": "tokenId",
          "type": "uint256"
        }
      ],
      "name": "approve",
      "outputs": [],
      "stateMutability": "nonpayable",
      "type": "function"
    },
    {
      "inputs": [
        {
          "internalType": "address",
          "name": "owner",
          "type": "address"
        }
      ],
      "name": "balanceOf",
      "outputs": [
        {
          "internalType": "uint256",
          "name": "",
          "type": "uint256"
        }
      ],
      "stateMutability": "view",
      "type": "function"
    },
    {
      "inputs": [
        {
          "internalType": "uint256",
          "name": "tokenId",
          "type": "uint256"
        }
      ],
      "name": "burn",
      "outputs": [],
      "stateMutability": "nonpayable",
      "type": "function"
    },
    {
      "inputs": [],
      "name": "chainId",
      "outputs": [
        {
          "internalType": "uint256",
          "name": "",
          "type": "uint256"
        }
      ],
      "stateMutability": "view",
      "type": "function"
    },
    {
      "inputs": [
        {
          "internalType": "uint256",
          "name": "tokenId",
          "type": "uint256"
        }
      ],
      "name": "createAccount",
      "outputs": [
        {
          "internalType": "address",
          "name": "",
          "type": "address"
        }
      ],
      "stateMutability": "nonpayable",
      "type": "function"
    },
    {
      "inputs": [
        {
          "internalType": "uint256",
          "name": "tokenId",
          "type": "uint256"
        }
      ],
      "name": "getAccount",
      "outputs": [
        {
          "internalType": "address",
          "name": "",
          "type": "address"
        }
      ],
      "stateMutability": "view",
      "type": "function"
    },
    {
      "inputs": [
        {
          "internalType": "uint256",
          "name": "tokenId",
          "type": "uint256"
        }
      ],
      "name": "getApproved",
      "outputs": [
        {
          "internalType": "address",
          "name": "",
          "type": "address"
        }
      ],
      "stateMutability": "view",
      "type": "function"
    },
    {
      "inputs": [],
      "name": "implementation",
      "outputs": [
        {
          "internalType": "address",
          "name": "",
          "type": "address"
        }
      ],
      "stateMutability": "view",
      "type": "function"
    },
    {
      "inputs": [
        {
          "internalType": "address",
          "name": "owner",
          "type": "address"
        },
        {
          "internalType": "address",
          "name": "operator",
          "type": "address"
        }
      ],
      "name": "isApprovedForAll",
      "outputs": [
        {
          "internalType": "bool",
          "name": "",
          "type": "bool"
        }
      ],
      "stateMutability": "view",
      "type": "function"
    },
    {
      "inputs": [],
      "name": "mint",
      "outputs": [],
      "stateMutability": "payable",
      "type": "function"
    },
    {
      "inputs": [],
      "name": "name",
      "outputs": [
        {
          "internalType": "string",
          "name": "",
          "type": "string"
        }
      ],
      "stateMutability": "view",
      "type": "function"
    },
    {
      "inputs": [],
      "name": "oracle",
      "outputs": [
        {
          "internalType": "address",
          "name": "",
          "type": "address"
        }
      ],
      "stateMutability": "view",
      "type": "function"
    },
    {
      "inputs": [
        {
          "internalType": "uint256",
          "name": "tokenId",
          "type": "uint256"
        }
      ],
      "name": "ownerOf",
      "outputs": [
        {
          "internalType": "address",
          "name": "",
          "type": "address"
        }
      ],
      "stateMutability": "view",
      "type": "function"
    },
    {
      "inputs": [],
      "name": "registry",
      "outputs": [
        {
          "internalType": "contract IERC6551Registry",
          "name": "",
          "type": "address"
        }
      ],
      "stateMutability": "view",
      "type": "function"
    },
    {
      "inputs": [
        {
          "internalType": "address",
          "name": "from",
          "type": "address"
        },
        {
          "internalType": "address",
          "name": "to",
          "type": "address"
        },
        {
          "internalType": "uint256",
          "name": "tokenId",
          "type": "uint256"
        }
      ],
      "name": "safeTransferFrom",
      "outputs": [],
      "stateMutability": "nonpayable",
      "type": "function"
    },
    {
      "inputs": [
        {
          "internalType": "address",
          "name": "from",
          "type": "address"
        },
        {
          "internalType": "address",
          "name": "to",
          "type": "address"
        },
        {
          "internalType": "uint256",
          "name": "tokenId",
          "type": "uint256"
        },
        {
          "internalType": "bytes",
          "name": "data",
          "type": "bytes"
        }
      ],
      "name": "safeTransferFrom",
      "outputs": [],
      "stateMutability": "nonpayable",
      "type": "function"
    },
    {
      "inputs": [
        {
          "internalType": "address",
          "name": "operator",
          "type": "address"
        },
        {
          "internalType": "bool",
          "name": "approved",
          "type": "bool"
        }
      ],
      "name": "setApprovalForAll",
      "outputs": [],
      "stateMutability": "nonpayable",
      "type": "function"
    },
    {
      "inputs": [
        {
          "internalType": "bytes4",
          "name": "interfaceId",
          "type": "bytes4"
        }
      ],
      "name": "supportsInterface",
      "outputs": [
        {
          "internalType": "bool",
          "name": "",
          "type": "bool"
        }
      ],
      "stateMutability": "view",
      "type": "function"
    },
    {
      "inputs": [],
      "name": "symbol",
      "outputs": [
        {
          "internalType": "string",
          "name": "",
          "type": "string"
        }
      ],
      "stateMutability": "view",
      "type": "function"
    },
    {
      "inputs": [],
      "name": "tokenContract",
      "outputs": [
        {
          "internalType": "address",
          "name": "",
          "type": "address"
        }
      ],
      "stateMutability": "view",
      "type": "function"
    },
    {
      "inputs": [
        {
          "internalType": "uint256",
          "name": "tokenId",
          "type": "uint256"
        }
      ],
      "name": "tokenURI",
      "outputs": [
        {
          "internalType": "string",
          "name": "",
          "type": "string"
        }
      ],
      "stateMutability": "view",
      "type": "function"
    },
    {
      "inputs": [],
      "name": "totalTokens",
      "outputs": [
        {
          "internalType": "uint256",
          "name": "",
          "type": "uint256"
        }
      ],
      "stateMutability": "view",
      "type": "function"
    },
    {
      "inputs": [
        {
          "internalType": "address",
          "name": "from",
          "type": "address"
        },
        {
          "internalType": "address",
          "name": "to",
          "type": "address"
        },
        {
          "internalType": "uint256",
          "name": "tokenId",
          "type": "uint256"
        }
      ],
      "name": "transferFrom",
      "outputs": [],
      "stateMutability": "nonpayable",
      "type": "function"
    },
    {
      "inputs": [
        {
          "internalType": "uint256",
          "name": "tokenId",
          "type": "uint256"
        },
        {
          "internalType": "address",
          "name": "receiver",
          "type": "address"
        }
      ],
      "name": "transferToken",
      "outputs": [],
      "stateMutability": "payable",
      "type": "function"
    }
  ],
  "bytecode": {
    "object": "0x610120346200041357601f1990601f6001600160401b03620025bd3881900383810186168501919083831186841017620003fd578086926060946040528339810103126200041357620000528362000438565b906020906200007160406200006984880162000438565b960162000438565b936200007c62000418565b92600e84526d11da5d189bdd5b9d1a595cd3919560921b81850152620000a162000418565b906008825267426f756e7469657360c01b81830152845198848a11620003fd576000998a54966001978881811c91168015620003f2575b85821014620003de5790818784931162000388575b5084908d8884116001146200032857926200031c575b5050600019600383901b1c191690871b178a555b8251948511620003085785548681811c91168015620002fd575b83821014620002e95790818587969594931162000290575b50819385116001146200022b57505088926200021f575b5050600019600383901b1c191690821b1790555b4660e0523061010090815260079490945560805260a0526001600160a01b031660c05260405161216f91826200044e83396080518281816110ae01528181611d2b0152611e39015260a051828181610c4e01528181610f70015281816112fc0152611a7b015260c051828181610fb401528181611daa0152611ec5015260e051828181610e1201528181611d520152611e6001525181818161115d01528181611d790152611e870152f35b01519050388062000160565b86959392919316858b52838b20938b905b8282106200027657505084116200025c575b505050811b01905562000174565b015160001960f88460031b161c191690553880806200024e565b84840151865588979095019493840193908101906200023c565b909192939450868b52828b208580880160051c820192858910620002df575b9188978a9297969594930160051c01915b828110620002d057505062000149565b8d8155889750899101620002c0565b92508192620002af565b634e487b7160e01b8b52602260045260248bfd5b90607f169062000131565b634e487b7160e01b8a52604160045260248afd5b01519050388062000103565b9190858b9516838052878420935b8882821062000371575050841162000357575b505050811b018a5562000117565b015160001960f88460031b161c1916905538808062000349565b8385015186558d9790950194938401930162000336565b9091508c8052848d208780850160051c820192878610620003d4575b859493910160051c909101908a908f5b838210620003c557505050620000ed565b81558594508b91018f620003b4565b92508192620003a4565b634e487b7160e01b8d52602260045260248dfd5b90607f1690620000d8565b634e487b7160e01b600052604160045260246000fd5b600080fd5b60408051919082016001600160401b03811183821017620003fd57604052565b51906001600160a01b0382168203620004135756fe608060408181526004918236101561001657600080fd5b600092833560e01c91826301ffc9a7146114985750816306fdde03146113cd578163081812fc146113ad578163095ea7b3146113885781631249c58b1461121457816323b872dd146111ef57816342842e0e146111d757816342966c681461118c57816355a373d614611148578163575817b2146110dd5781635c60da1b146110995781636352211e1461107957816370a0823114610fe35781637b10399914610f9f5781637dc0d1d014610f5b5781637e1c0c0914610f3c57816395d89b4114610e355781639a8a059214610dfa578163a22cb46514610d2a578163b88d4fde14610c75578163bad4259014610c04578163c87b56dd146101dc578163cab13915146101bc578163ce88b14514610188575063e985e9c51461013857600080fd5b3461018457806003193601126101845760ff8160209361015661154b565b61015e611566565b6001600160a01b0391821683526005875283832091168252855220549151911615158152f35b5080fd5b8284346101b95760203660031901126101b957506101a860209235611d06565b90516001600160a01b039091168152f35b80fd5b8284346101b95760203660031901126101b957506101a860209235611e12565b83833461018457602091826003193601126101b9578335600081815260026020526040902054610220919061021b906001600160a01b03161515611621565b611d06565b5081517f3c7376672077696474683d2232353622206865696768743d223235362220786d848201527f6c6e733d22687474703a2f2f7777772e77332e6f72672f323030302f7376672281840152601f60f91b60608201526710101e3232b3399f60c11b60618201527f202020203c6c696e6561724772616469656e742069643d22746578744772616460698201527f69656e74222078313d223025222079313d223025222078323d223130302522206089820152693c991e9118981812911f60b11b60a98201527f2020202020203c73746f70206f66667365743d22312e383425222073746f702d60b38201527131b7b637b91e9111b0b29b1bb3309110179f60711b60d38201527f2020202020203c73746f70206f66667365743d223130322e363725222073746f60e5820152733816b1b7b637b91e9111b31a1c9c1b1b9110179f60611b61010582015274101010101e17b634b732b0b923b930b234b2b73a1f60591b6101198201527f202020203c72616469616c4772616469656e742069643d22726164477261646961012e8201527f656e74222063783d22353025222063793d22353025223e00000000000000000061014e8201527f2020202020203c73746f70206f66667365743d223025222073746f702d636f6c6101658201527f6f723d227267626128302c2034302c2038332c20312922202f3e0000000000006101858201527f2020202020203c73746f70206f66667365743d22353025222073746f702d636f61019f8201527f6c6f723d227267626128342c2031322c2032342c20312922202f3e00000000006101bf82015274101010101e17b930b234b0b623b930b234b2b73a1f60591b6101da8201526810101e17b232b3399f60b91b6101ef8201526810101e39ba3cb6329f60b91b6101f88201526a202020203a726f6f74207b60a81b6102018201527f20202020202020202d2d746578742d636f6c6f723a20234535453745423b000061020c82015264202020207d60d81b61022a8201819052692020202074657874207b60b01b61022f8301527f2020202020202020666f6e742d66616d696c793a20224f70656e2053616e7322610239830152732c20417269616c2c2073616e732d73657269663b60601b61025983015261026d820181905271202020202e6e6f726d616c2d74657874207b60701b6102728301527f202020202020202066696c6c3a20766172282d2d746578742d636f6c6f72293b6102848301527f202020202020202077686974652d73706163653a206e6f726d616c3b000000006102a48301527f2020202020202020776f72642d777261703a20627265616b2d776f72643b00006102c08301527f20202020202020206d61782d77696474683a2032353670783b000000000000006102de8301526102f78201526910101e17b9ba3cb6329f60b11b6102fc8201527f20203c7265637420783d22302220793d2230222077696474683d2232353622206103068201527f6865696768743d22323536222066696c6c3d2275726c282372616447726164696103268201526632b73a1491179f60c91b6103468201527f20203c7465787420783d223134352220793d2232302220666f6e742d73697a6561034d8201527f3d223136222066696c6c3d2275726c2823746578744772616469656e7429222061036d8201526e34b21e913637b3b796ba32bc3a111f60891b61038d8201526e20202020474954424f554e5449455360881b61039c8201526810101e17ba32bc3a1f60b91b6103ab82018190527f20203c7465787420783d223132382220793d223131302220666f6e742d73697a6103b48301527f653d2231302220636c6173733d226e6f726d616c2d746578742220746578742d6103d483018190527030b731b437b91e9136b4b232363291101f60791b6103f484018190527f202020204d725069636b6c6550696e6f736175722f736872730000000000000061040585015261041e84018390527f20203c7465787420783d223132382220793d223132382220666f6e742d73697a6104278501527f653d2231362220636c6173733d226e6f726d616c2d7465787422206c656e67746104478501527f6841646a7573743d2273706163696e67416e64476c797068732220746578742d61046785015261048784018190527f202020205b4275675d3a204e657374696e67207368727320627265616b7320656104988501526a1e1a5d0818dbdb5b585b9960aa1b6104b88501526104c384018390527f20203c7465787420783d223132382220793d223230302220666f6e742d73697a6104cc8501527f653d2232342220746578742d616e63686f723d226d6964646c65222066696c6c6104ec8501526b1e91119c1a21a1989b11101f60a11b61050c850152671010101027a822a760c11b61051885015261052084018390527f20203c7465787420783d223132382220793d223234302220666f6e742d73697a6105298501526105498401919091526105698301526b040404040605c6062408aa8960a31b61057a830152610586820152651e17b9bb339f60d11b61058f820152610575815267ffffffffffffffff906105a0810182811182821017610bf157845261099590611fab565b908351906109e8603a83888101957f646174613a696d6167652f7376672b786d6c3b6261736536342c00000000000087526109d8815180928c8686019101611503565b810103601a8101855201836115e3565b84519384860191821185831017610bde57610bab87610bda88610bcb838a8a610b99610a77610b9460fa8e8e8a52601d8752878701957f646174613a6170706c69636174696f6e2f6a736f6e3b6261736536342c00000087528a519485927f7b226e616d65223a22474954424f554e54494553222c2022696d616765223a228b8501525180928d850190611503565b810161088b60f21b8b8201527f226465736372697074696f6e223a20224120626f756e747920666f7220616e2060428201527f6f70656e20736f7572636520636f6e747269627574696f6e2e20536f6c76652060628201527f697420746f20676574207468652072657761726421222c00000000000000000060828201527f2261747472696275746573223a5b7b2274726169745f74797065223a2242616c60998201526e30b731b29116113b30b63ab2911d1160891b60b9820152620302e360ec1b60c88201527f20455448227d2c7b2274726169745f74797065223a22537461747573222c227660cb8201526d616c7565223a224f70656e227d5d60901b60eb820152607d60f81b60f98201520360da8101845201826115e3565b611fab565b90855198899351809286860190611503565b8201610bbf82518093868085019101611503565b010380875201856115e3565b51928284938452830190611526565b0390f35b634e487b7160e01b815260418852602490fd5b634e487b7160e01b845260418752602484fd5b91366003190112905061018457610c729035610c4c81610c22611566565b610c34610c2f83336118e8565b611f45565b610c3d8261166d565b50610c478261166d565b61184b565b7f0000000000000000000000000000000000000000000000000000000000000000611af0565b80f35b91905034610d26576080366003190112610d2657610c9161154b565b90610c9a611566565b604435906064359467ffffffffffffffff8611610d225736602387011215610d225785013593610cd5610ccc86611605565b945194856115e3565b8484528636602487890101116101b957602086610d1d976024610c729a018389013786010152610d0d610d0884336118e8565b6117e9565b610d188383836119b0565b611c6e565b6118c4565b8680fd5b8280fd5b91905034610d265780600319360112610d2657610d4561154b565b9060243591821515809303610df6576001600160a01b031692338414610db45750338452600560205280842083855260205280842060ff1981541660ff8416179055519081527f17307eab39ab6107e8899845ad3d59bd9653f200f220920489ca2b5937696c3160203392a380f35b6020606492519162461bcd60e51b8352820152601960248201527f4552433732313a20617070726f766520746f2063616c6c6572000000000000006044820152fd5b8480fd5b505034610184578160031936011261018457602090517f00000000000000000000000000000000000000000000000000000000000000008152f35b8284346101b957806003193601126101b9578151918160019283549384811c91818616958615610f32575b6020968785108114610f1f578899509688969785829a529182600014610ef8575050600114610e9d575b505050610bda9291610bcb9103856115e3565b91908693508083527fb10e2d527612073b26eecdfd717e6a320cf44b4afac2b0732d9fcbe2b7fa0cf65b828410610ee05750505082010181610bcb610bda610e8a565b8054848a018601528895508794909301928101610ec7565b60ff19168782015293151560051b86019093019350849250610bcb9150610bda9050610e8a565b634e487b7160e01b835260228a52602483fd5b92607f1692610e60565b5050346101845781600319360112610184576020906006549051908152f35b505034610184578160031936011261018457517f00000000000000000000000000000000000000000000000000000000000000006001600160a01b03168152602090f35b505034610184578160031936011261018457517f00000000000000000000000000000000000000000000000000000000000000006001600160a01b03168152602090f35b83915034610184576020366003190112610184576001600160a01b0361100761154b565b169081156110245760208480858581526003845220549051908152f35b608490602085519162461bcd60e51b8352820152602960248201527f4552433732313a2061646472657373207a65726f206973206e6f7420612076616044820152683634b21037bbb732b960b91b6064820152fd5b8284346101b95760203660031901126101b957506101a86020923561166d565b505034610184578160031936011261018457517f00000000000000000000000000000000000000000000000000000000000000006001600160a01b03168152602090f35b9190506020366003190112610d2657828080806110fa8635611d06565b34905af1611106611b4d565b5015611110578280f35b906020606492519162461bcd60e51b8352820152601260248201527108cc2d2d8cac840e8de40e6cadcc8408aa8960731b6044820152fd5b505034610184578160031936011261018457517f00000000000000000000000000000000000000000000000000000000000000006001600160a01b03168152602090f35b83903461018457602036600319011261018457610c7290356111b1610c2f82336118e8565b6111ba8161166d565b50610c4c816111c88161166d565b6111d182611e12565b9061184b565b83346101b957610c726111e93661157c565b9161184b565b83346101b957610c726112013661157c565b9161120f610d0884336118e8565b6119b0565b83809250600319360112610184576006546000198114611375576001019081600655835190611242826115b1565b838252331561133257506000828152600260205260409020549293610c7293611277906001600160a01b031615155b15611ef9565b60008381526002602052604090205461129a906001600160a01b03161515611271565b33855260036020528085206001815401905582855260026020528420336bffffffffffffffffffffffff60a01b8254161790558133857fddf252ad1be2c89b69c2b068fc378daa952ba7f163c4a11628f55a4df523b3ef8180a461132d610d1d7f0000000000000000000000000000000000000000000000000000000000000000926113268585611af0565b8433611b7d565b611693565b606490602086519162461bcd60e51b8352820152602060248201527f4552433732313a206d696e7420746f20746865207a65726f20616464726573736044820152fd5b634e487b7160e01b835260118252602483fd5b505034610184573660031901126101b957610c726113a461154b565b60243590611693565b8284346101b95760203660031901126101b957506101a8602092356117ab565b8284346101b957806003193601126101b95781519181825492600184811c9181861695861561148e575b6020968785108114610f1f578899509688969785829a529182600014610ef857505060011461143357505050610bda9291610bcb9103856115e3565b91908693508280527f290decd9548b62a8d60345a988386fc84ba6bc95484008f6362f93160ef3e5635b8284106114765750505082010181610bcb610bda610e8a565b8054848a01860152889550879490930192810161145d565b92607f16926113f7565b849134610d26576020366003190112610d26573563ffffffff60e01b8116809103610d2657602092506380ac58cd60e01b81149081156114f2575b81156114e1575b5015158152f35b6301ffc9a760e01b149050836114da565b635b5e139f60e01b811491506114d3565b60005b8381106115165750506000910152565b8181015183820152602001611506565b9060209161153f81518092818552858086019101611503565b601f01601f1916010190565b600435906001600160a01b038216820361156157565b600080fd5b602435906001600160a01b038216820361156157565b6060906003190112611561576001600160a01b0390600435828116810361156157916024359081168103611561579060443590565b6020810190811067ffffffffffffffff8211176115cd57604052565b634e487b7160e01b600052604160045260246000fd5b90601f8019910116810190811067ffffffffffffffff8211176115cd57604052565b67ffffffffffffffff81116115cd57601f01601f191660200190565b1561162857565b60405162461bcd60e51b815260206004820152601860248201527f4552433732313a20696e76616c696420746f6b656e20494400000000000000006044820152606490fd5b6000908152600260205260409020546001600160a01b0316611690811515611621565b90565b906001600160a01b03806116a68361166d565b16809184161461175c57803314908115611737575b50156116cc576116ca91611af0565b565b60405162461bcd60e51b815260206004820152603d60248201527f4552433732313a20617070726f76652063616c6c6572206973206e6f7420746f60448201527f6b656e206f776e6572206f7220617070726f76656420666f7220616c6c0000006064820152608490fd5b9050600052600560205260406000203360005260205260ff60406000205416386116bb565b60405162461bcd60e51b815260206004820152602160248201527f4552433732313a20617070726f76616c20746f2063757272656e74206f776e656044820152603960f91b6064820152608490fd5b6000818152600260205260409020546117ce906001600160a01b03161515611621565b6000908152600460205260409020546001600160a01b031690565b156117f057565b60405162461bcd60e51b815260206004820152602d60248201527f4552433732313a2063616c6c6572206973206e6f7420746f6b656e206f776e6560448201526c1c881bdc88185c1c1c9bdd9959609a1b6064820152608490fd5b6116ca92610d1d9260405192611860846115b1565b60008452610d0d610d0884336118e8565b60809060208152603260208201527f4552433732313a207472616e7366657220746f206e6f6e20455243373231526560408201527131b2b4bb32b91034b6b83632b6b2b73a32b960711b60608201520190565b156118cb57565b60405162461bcd60e51b8152806118e460048201611871565b0390fd5b906001600160a01b0380806118fc8461166d565b1693169183831493841561192f575b508315611919575b50505090565b611925919293506117ab565b1614388080611913565b909350600052600560205260406000208260005260205260ff60406000205416923861190b565b1561195d57565b60405162461bcd60e51b815260206004820152602560248201527f4552433732313a207472616e736665722066726f6d20696e636f72726563742060448201526437bbb732b960d91b6064820152608490fd5b906119da92916119bf8361166d565b6001600160a01b039182169491928392909183168614611956565b168015611a9f57836119fb6116ca9585946119f48661166d565b1614611956565b7fddf252ad1be2c89b69c2b068fc378daa952ba7f163c4a11628f55a4df523b3ef60008481526004602052604081206bffffffffffffffffffffffff60a01b9081815416905583825260036020526040822060001981540190558482526040822060018154019055858252600260205284604083209182541617905580a47f0000000000000000000000000000000000000000000000000000000000000000611af0565b60405162461bcd60e51b8152602060048201526024808201527f4552433732313a207472616e7366657220746f20746865207a65726f206164646044820152637265737360e01b6064820152608490fd5b600082815260046020526040902080546001600160a01b0319166001600160a01b0392831690811790915590611b258361166d565b167f8c5be1e5ebec7d5bd14f71427d1e84f3dd0314c0f7b2291e5b200ac8c7c3b925600080a4565b3d15611b78573d90611b5e82611605565b91611b6c60405193846115e3565b82523d6000602084013e565b606090565b909190803b15611c66576020604051809281630a85bd0160e11b9687825233600483015281611bc660009889938460248501526044840152608060648401526084830190611526565b03926001600160a01b03165af190829082611c1e575b5050611c1057611bea611b4d565b80519081611c0b5760405162461bcd60e51b8152806118e460048201611871565b602001fd5b6001600160e01b0319161490565b909192506020813d8211611c5e575b81611c3a602093836115e3565b810103126101845751906001600160e01b0319821682036101b95750903880611bdc565b3d9150611c2d565b505050600190565b9290803b15611cde57611cbe9160209160018060a01b039460405180958194829389630a85bd0160e11b9b8c86523360048701521660248501526044840152608060648401526084830190611526565b03916000968791165af190829082611c1e575050611c1057611bea611b4d565b50505050600190565b9081602091031261156157516001600160a01b03811681036115615790565b602060018060a01b039160a4600754916040519485938492632f4de29b60e11b8452827f00000000000000000000000000000000000000000000000000000000000000001660048501527f00000000000000000000000000000000000000000000000000000000000000006024850152827f0000000000000000000000000000000000000000000000000000000000000000166044850152606484015260848301527f0000000000000000000000000000000000000000000000000000000000000000165afa908115611e0657600091611dde575090565b611690915060203d8111611dff575b611df781836115e3565b810190611ce7565b503d611ded565b6040513d6000823e3d90fd5b602060018060a01b039160e4600754916000604051958694859363da7323b360e01b8552827f00000000000000000000000000000000000000000000000000000000000000001660048601527f00000000000000000000000000000000000000000000000000000000000000006024860152827f00000000000000000000000000000000000000000000000000000000000000001660448601526064850152608484015260c060a48401528160c48401527f0000000000000000000000000000000000000000000000000000000000000000165af1908115611e0657600091611dde575090565b15611f0057565b60405162461bcd60e51b815260206004820152601c60248201527f4552433732313a20746f6b656e20616c7265616479206d696e746564000000006044820152606490fd5b15611f4c57565b60405162461bcd60e51b815260206004820152603160248201527f4552433732313a207472616e736665722063616c6c6572206973206e6f74206f6044820152701ddb995c881b9bdc88185c1c1c9bdd9959607a1b6064820152608490fd5b805115612125576040516060810181811067ffffffffffffffff8211176115cd57604052604081527f4142434445464748494a4b4c4d4e4f505152535455565758595a61626364656660208201527f6768696a6b6c6d6e6f707172737475767778797a303132333435363738392b2f6040820152815160029283820180921161210f5760039182900480851b94906001600160fe1b0381160361210f579261206b61205586611605565b9561206360405197886115e3565b808752611605565b6020860190601f190136823793829183518401925b8381106120be57505050505106806001146120ab576002146120a0575090565b603d90600019015390565b50603d9081600019820153600119015390565b85600491979293949701918251600190603f9082828260121c16880101518453828282600c1c16880101518385015382828260061c1688010151888501531685010151878201530195929190612080565b634e487b7160e01b600052601160045260246000fd5b50604051612132816115b1565b600081529056fea2646970667358221220d4ca71c4bb91b286083254547e6f0b77921590c63963d08bd1ba38c3f7862ab064736f6c63430008150033",
    "linkReferences": {}
  },
  "methodIdentifiers": {
    "addETH(uint256)": "575817b2",
    "approve(address,uint256)": "095ea7b3",
    "balanceOf(address)": "70a08231",
    "burn(uint256)": "42966c68",
    "chainId()": "9a8a0592",
    "createAccount(uint256)": "cab13915",
    "getAccount(uint256)": "ce88b145",
    "getApproved(uint256)": "081812fc",
    "implementation()": "5c60da1b",
    "isApprovedForAll(address,address)": "e985e9c5",
    "mint()": "1249c58b",
    "name()": "06fdde03",
    "oracle()": "7dc0d1d0",
    "ownerOf(uint256)": "6352211e",
    "registry()": "7b103999",
    "safeTransferFrom(address,address,uint256)": "42842e0e",
    "safeTransferFrom(address,address,uint256,bytes)": "b88d4fde",
    "setApprovalForAll(address,bool)": "a22cb465",
    "supportsInterface(bytes4)": "01ffc9a7",
    "symbol()": "95d89b41",
    "tokenContract()": "55a373d6",
    "tokenURI(uint256)": "c87b56dd",
    "totalTokens()": "7e1c0c09",
    "transferFrom(address,address,uint256)": "23b872dd",
    "transferToken(uint256,address)": "bad42590"
  },
  "id": 43
}